:020000040800F2
:1000000000000220E10F0008291000082910000854
:10001000291000082910000829100008000000001D
:10002000000000000000000000000000291000088F
:1000300029100008000000002910000829100008FD
:1000400029100008291000082910000829100008AC
:10005000291000082910000829100008291000089C
:10006000291000082910000829100008291000088C
:10007000291000082910000829100008291000087C
:10008000291000082910000829100008291000086C
:10009000291000082910000829100008291000085C
:1000A000291000082910000829100008291000084C
:1000B000291000082910000829100008291000083C
:1000C000291000082910000829100008291000082C
:1000D000291000082910000829100008291000081C
:1000E000291000082910000829100008291000080C
:1000F00029100008291000082910000829100008FC
:1001000029100008291000082910000829100008EB
:1001100029100008291000082910000829100008DB
:1001200029100008291000082910000829100008CB
:1001300029100008291000082910000829100008BB
:1001400029100008291000082910000829100008AB
:10015000291000082910000829100008291000089B
:10016000291000082910000829100008291000088B
:10017000291000082910000829100008291000087B
:080180002910000829100008F5
:10018800044B05481B1A062B02D9044B03B1184728
:10019800704700BF5B0400205804002000000000E6
:1001A80005490648091A891001EBD171491002D096
:1001B800034B03B118477047580400205804002027
:1001C8000000000010B5064C237843B9FFF7D8FFAC
:1001D800044B13B10448AFF300800123237010BD12
:1001E80058040020000000000413000808B5084B5C
:1001F8001BB108480849AFF300800848036813B9E1
:10020800BDE80840CCE7064B002BF9D09847F7E744
:1002180000000000041300085C04002054040020BF
:1002280000000000134B002B08BF114B9D46A3F59F
:10023800803A00218B460F461148124A121A00F0E4
:1002480045FF0D4B002B00D098470C4B002B00D0DE
:1002580098470020002104000D000B4800F0E2FE42
:1002680000F00CFF2000290000F044FC00F0E0FE44
:10027800000008000000000000000000000000006E
:10028800580400207404002059100008364B3748E1
:100298001A68002142F001021A6099601A6822F077
:1002A800847222F480321A6058601A6882B022F48C
:1002B80080221A60D960009101911A6842F4803254
:1002C8001A601A4603E0009BB3F5A06F09D01368C3
:1002D80003F400330193009B01330093019B002B2F
:1002E800F1D0214B1B6813F4003318BF012301938D
:1002F800019B012B05D01E4B4FF000629A6002B0A3
:100308007047194B1B491A6C1B4842F080521A64FB
:100318000A6842F480420A609A689A609A6842F4CD
:1003280000429A609A6842F4A0529A6058601A682B
:1003380042F080721A601A4611680B4B8901FBD58E
:100348000E4A40F2056111609A6822F003029A6031
:100358009A6842F002029A601A46936803F00C0306
:10036800082BFAD1C7E700BF00380240103000243C
:1003780000ED00E00070004008544007003C0240D7
:100388001848836803F00C03042B28D0082B09D0E5
:10039800154B144A15499268C2F303128A5CD3407C
:1003A8000B6170474368416813F4800F436818BFB6
:1003B8000F4801F03F020CBF0B49B0FBF2F1C3F349
:1003C800881308BFB1FBF2F101FB03F2054B5B6830
:1003D800C3F3014301335B00B2FBF3F3D9E7044BEA
:1003E800D7E700BF003802400024F40004000020D2
:1003F80000127A000A4B0B481A68002142F00102E9
:100408001A6099601A6822F0847222F480321A60A5
:1004180058601A6822F480221A60D960704700BFB9
:100428000038024010300024024B00221A70187065
:10043800704700BF0238024082B000230A4A019385
:1004480002E0B3F5A06F08D0136813F4003F019BD6
:1004580003F101030193019BF3D0034B1868C0F328
:10046800404002B0704700BF00380240034A13689A
:1004780023F0F80343EAC0001060704700380240D8
:10048800014B1860704700BF00004742064B00222E
:1004980001281A701A7005D0042802D105221A7092
:1004A800704770471870704770380240014B1860E9
:1004B800704700BF800E474230B4029C064D40EAA8
:1004C800046001435B08013B41EA821242EA0340AF
:1004D800686030BC704700BF00380240014B1860AC
:1004E800704700BF600047420907034B41EA80108C
:1004F800C3F88400704700BF00380240014B186001
:10050800704700BF68004742014B1860704700BF42
:100518004C004742034A936823F0EC6319430843AD
:100528009060704700380240034A936823F078438C
:10053800194308439060704700380240034A9368A3
:1005480023F0030318439060704700BF003802404F
:10055800024B986800F00C00704700BF003802405A
:10056800034A936823F0F00318439060704700BF74
:1005780000380240034A936823F4E053184390601C
:10058800704700BF00380240034A936823F4604371
:1005980043EAC000906070470038024010B4214C14
:1005A800A36803F00C03042B1BD0082B1CD01E4B94
:1005B80003601C4A1D499468C4F303140C5DE340AE
:1005C80043609468C4F382240C5D23FA04F48460C5
:1005D80092685DF8044BC2F342328A5CD340C36030
:1005E8007047134B0360E4E76368616813F4800F96
:1005F800636818BF0E4C01F03F020CBF0A49B4FBF8
:10060800F2F1C3F3881308BFB1FBF2F101FB03F267
:10061800044B5B68C3F3014301335B00B2FBF3F3A4
:100628000360C6E7003802400024F40018000020E8
:1006380000127A0000F44073B3F5407F09D10849ED
:100648008B6820F0704223F4F81322F440721343AD
:100658008B60034A136FC0F30B0018431067704791
:1006680000380240014B1860704700BF3C0E4742FB
:10067800014B1860704700BF400E4742014B18609D
:10068800704700BF5C014742044A136B19B923EA5B
:100698000000106370471843106370470038024029
:1006A800044A536B19B923EA000050637047184392
:1006B8005063704700380240044A936B19B923EA23
:1006C80000009063704718439063704700380240F9
:1006D800044A136C19B923EA0000106470471843E0
:1006E8001064704700380240044A536C19B923EA71
:1006F8000000506470471843506470470038024047
:10070800044A136919B923EA0000106170471843B5
:100718001061704700380240044A536919B923EA46
:10072800000050617047184350617047003802401C
:10073800044A936919B923EA000090617047184385
:100748009061704700380240044A136A19B923EAD5
:10075800000010627047184310627047003802406A
:10076800044A536A19B923EA0000506270471843D3
:100778005062704700380240044A136D19B923EAE1
:100788000000106570471843106570470038024034
:10079800044A536D19B923EA00005065704718439D
:1007A8005065704700380240044A936D19B923EA2E
:1007B8000000906570471843906570470038024004
:1007C800044A136E19B923EA0000106670471843EB
:1007D8001066704700380240044A536E19B923EA7C
:1007E8000000506670471843506670470038024052
:1007F800044A137819B923EA0000107070471843A7
:10080800107070470D3802404309012B0BD0022BA2
:10081800094B0CBF1A6F5A6F00F01F0322FA03F03E
:1008280000F001007047044B1A6800F01F0322FA19
:1008380003F000F00100704700380240024A536F8D
:1008480043F080735367704700380240034BDB68FE
:10085800184214BF01200020704700BF0038024032
:10086800014B1870704700BF0E38024008B53C4B6A
:10087800984224D03B4B98422BD03B4B984232D0E5
:100888003A4B984239D03A4B984240D0394B98422B
:1008980047D0394B98424ED0384B984255D0384BB8
:1008A800984200D008BD4FF480700121FFF728FF5F
:1008B8004FF480700021BDE80840FFF721BF0120F8
:1008C8000146FFF71DFF01200021BDE80840FFF7A2
:1008D80017BF02200121FFF713FF02200021BDE806
:1008E8000840FFF70DBF04200121FFF709FF04208E
:1008F8000021BDE80840FFF703BF08200121FFF7EA
:10090800FFFE08200021BDE80840FFF7F9BE1020CF
:100918000121FFF7F5FE10200021BDE80840FFF790
:10092800EFBE20200121FFF7EBFE20200021BDE8CB
:100938000840FFF7E5BE40200121FFF7E1FE402017
:100948000021BDE80840FFF7DBBE80200121FFF74A
:10095800D7FE80200021BDE80840FFF7D1BE00BFC8
:10096800000002400004024000080240000C02405F
:10097800001002400014024000180240001C02400F
:100988000020024000222DE9F0431346D1F800E090
:1009980001274FF0030C04E00133102B02F102028F
:1009A80028D007FA03F404EA0E05A542F4D1D0F8DA
:1009B80000800E790CFA02F4E44304EA0808C0F84F
:1009C8000080D0F8008006FA02F9013E49EA0808DA
:1009D800012EC0F800800FD9C568CE792C40C460BC
:1009E800C56806FA02F401332C43102BC46002F1E7
:1009F8000202D6D1BDE8F083D0F8089091F80580BE
:100A08008E7904EA0909C0F80890D0F8089008FA25
:100A180002F848EA0908C0F80880D0F8048028EAF3
:100A280005054560D0F8048006FA03F5ADB245EA3D
:100A380008054560D0E700BF00234FF6FF7202604B
:100A4800037143718371C371704700BF82B04FF463
:100A580080330193019B0B430193019BC361C161E7
:100A6800019BC361C3690193C369019302B07047D5
:100A78000369194214BF012000207047006980B241
:100A8800704700BF4369194214BF01200020704716
:100A9800406980B2704700BF018370474183704747
:100AA8000AB9418370470183704700BF41617047AD
:100AB8004369594041617047CB0800EB830001F05E
:100AC800070110B48900046A0F238B4024EA03034A
:100AD8000362036A5DF8044B8A401343036270475C
:100AE800341300080000002054040020580400209B
:100AF8007404002030B5012083B00146FFF7C4FD1F
:100B080008200121FFF7C0FD10200121FFF7BCFDDF
:100B1800002401254FF470436946C54800938DF8B9
:100B280004508DF805408DF806408DF80740FFF712
:100B380029FF4FF4D4436946BE488DF804508DF818
:100B480005408DF806408DF807400093FFF71AFF1F
:100B580002236946B84800958DF804408DF807309F
:100B6800FFF710FFB54CB64DB3480121FFF780FFE2
:100B78000028F9D0AF484FF40071FFF78DFF2268C5
:100B8800B2F5967F07D3A5FB02325209002300BFB6
:100B980001339342FBD3A7484FF40071FFF77EFF60
:100BA8002268B2F5967F07D3A5FB023252090023CB
:100BB80000BF01339342FBD39E484FF40061FFF717
:100BC8006BFF2268B2F5967F07D3A5FB0232520964
:100BD800002300BF01339342FBD396484FF40061D2
:100BE800FFF75CFF2268B2F5967F07D3A5FB0232B8
:100BF8005209002300BF01339342FBD38D484FF4C1
:100C08000051FFF749FF2268B2F5967F07D3A5FB8D
:100C180002325209002300BF01339342FBD38548B7
:100C28004FF40051FFF73AFF2268B2F5967F07D3D9
:100C3800A5FB02325209002300BF01339342FBD3C4
:100C48007C484FF48041FFF727FF2268B2F5967F72
:100C580007D3A5FB02325209002300BF0133934298
:100C6800FBD374484FF48041FFF718FF2268B2F5B0
:100C7800967F07D3A5FB02325209002300BF013338
:100C88009342FBD36A484FF48051FFF705FF22686F
:100C9800B2F5967F07D3A5FB02325209002300BFA5
:100CA80001339342FBD362484FF48051FFF7F6FEBD
:100CB8002268B2F5967F07D3A5FB023252090023BA
:100CC80000BF01339342FBD359484FF40051FFF75B
:100CD800E3FE2268B2F5967F07D3A5FB02325209DC
:100CE800002300BF01339342FBD351484FF4005116
:100CF800FFF7D4FE2268B2F5967F07D3A5FB023230
:100D08005209002300BF01339342FBD348484FF4F4
:100D18008041FFF7C1FE2268B2F5967F07D3A5FB95
:100D280002325209002300BF01339342FBD34048EB
:100D38004FF48041FFF7B2FE2268B2F5967F07D3E1
:100D4800A5FB02325209002300BF01339342FBD3B3
:100D580037484FF40041FFF79FFE2268B2F5967FAF
:100D680007D3A5FB02325209002300BF0133934287
:100D7800FBD32F484FF40041FFF790FE2268B2F5ED
:100D8800967F07D3A5FB02325209002300BF013327
:100D98009342FBD326484FF40041FFF77DFE2268BB
:100DA800B2F5967F07D3A5FB02325209002300BF94
:100DB80001339342FBD31E484FF40041FFF76EFE08
:100DC8002268B2F5967F07D3A5FB023252090023A9
:100DD80000BF01339342FBD315484FF48041FFF71E
:100DE8005BFE2268B2F5967F07D3A5FB0232520953
:100DF800002300BF01339342FBD30D484FF48041D9
:100E0800FFF74CFE2268B2F5967F07D3A5FB0232A6
:100E18005209002300BF01339342FBD304484FF427
:100E28000051FFF739FE2268B2F5967F12D309E028
:100E3800000C024000100240000002401400002094
:100E4800B5814E1BA5FB02325209002300BF0133B6
:100E58009342FBD35E484FF40051FFF71FFE226810
:100E6800B2F5967F07D3A5FB02325209002300BFD3
:100E780001339342FBD356484FF48051FFF70CFEE1
:100E88002268B2F5967F07D3A5FB023252090023E8
:100E980000BF01339342FBD34D484FF48051FFF715
:100EA800FDFD2268B2F5967F07D3A5FB02325209F1
:100EB800002300BF01339342FBD346484FF48041DF
:100EC800FFF7EAFD2268B2F5967F07D3A5FB023249
:100ED8005209002300BF01339342FBD33D484FF42E
:100EE8008041FFF7DBFD2268B2F5967F07D3A5FBAB
:100EF80002325209002300BF01339342FBD3354825
:100F08004FF40051FFF7C8FD2268B2F5967F07D36A
:100F1800A5FB02325209002300BF01339342FBD3E1
:100F28002C484FF40051FFF7B9FD2268B2F5967FBF
:100F380007D3A5FB02325209002300BF01339342B5
:100F4800FBD324484FF40061FFF7A6FD2268B2F5F1
:100F5800967F07D3A5FB02325209002300BF013355
:100F68009342FBD31B484FF40061FFF797FD2268BB
:100F7800B2F5967F07D3A5FB02325209002300BFC2
:100F880001339342FBD313484FF40071FFF784FDFC
:100F98002268B2F5967F07D3A5FB023252090023D7
:100FA80000BF01339342FBD30A484FF40071FFF7A7
:100FB80075FD2268B2F5967FFFF4D6ADA5FB023227
:100FC8005209002300BF01339342FBD3CCE500BF95
:100FD800000C024000100240002103E00B4B5B585C
:100FE800435004310A480B4B42189A42F6D30A4A36
:100FF80002E0002342F8043B084B9A42F9D3FFF77A
:1010080045F900F03BF8FFF775FD70473413000809
:10101800000000205404002058040020740400201C
:10102800FEE70000014600200246034600F09CB897
:1010380008B50021044600F0F3F8044B1868C36BA8
:1010480003B19847204600F067F900BF0013000875
:1010580038B5084B084DED1AAC1018BFED1805D07F
:10106800013C55F8043D9847002CF9D1BDE83840BB
:1010780000F04CB9301300083413000870B50F4E57
:101088000F4D761BB61018BF002405D0013455F853
:10109800043B9847A642F9D10A4E0B4D761B00F047
:1010A8002FF9B61018BF002406D0013455F8043BB8
:1010B8009847A642F9D170BD70BD00BF281300083B
:1010C80028130008301300082813000870B4840798
:1010D80046D0541E002A41D0CDB2034602E0621E1B
:1010E800E4B3144603F8015B9A07F8D1032C2ED910
:1010F800CDB245EA05250F2C45EA054519D903F176
:1011080010022646103E0F2E42F8105C42F80C5C86
:1011180042F8085C42F8045C02F11002F2D8A4F12B
:10112800100222F00F0204F00F041032032C1344B3
:101138000DD91E462246043A032A46F8045BFAD81B
:10114800221F22F003020432134404F003042CB1DA
:10115800C9B21C4403F8011BA342FBD170BC704701
:1011680014460346C2E700BF2DE9F047254C256821
:10117800D5F848410646884692469946CCB36068F9
:101188001F2818DC431C7EB104EB80050121C5F83B
:1011980088A0D4F8887101FA00F21743022EC4F827
:1011A8008871C5F808911ED00230636044F8208029
:1011B8000020BDE8F087144B03B34FF4C870AFF3B9
:1011C80000800446D0B1D5F84831002780E888006F
:1011D800C5F8484138460123C4F88871C4F88C71B1
:1011E800002EE1D0D0E7D4F88C110A43C4F88C2142
:1011F800DAE705F5A674C5F84841C0E74FF0FF30B7
:10120800BDE8F0870013000800000000024B13B18E
:101218000248FFF707BF7047000000005910000898
:101228002DE9F04F314B83B01B68009303F5A4738D
:1012380081460E460193009BD3F8487127B3DDF829
:1012480004A07C68651E0ED4013407EB84044FF0BB
:101258000008E6B1D4F80031B34218D0013D6B1C48
:10126800A4F10404F5D1224B73B17B68002B36D16D
:101278003B68002B34D03846CAF80030AFF3008002
:10128800DAF80070002FDCD103B0BDE8F08F7B687E
:101298002268013BAB420CBF7D60C4F80080002A85
:1012A800DCD0D7F88831D7F804B00121A940194219
:1012B80008D190477B685B45BDD1DAF80030BB4266
:1012C800CCD0B8E7D7F88C31194204D14846D4F8C5
:1012D80080109047EEE7D4F880009047EAE73B6833
:1012E800BA461F46002FACD1CEE700BF0013000856
:1012F800000000004300000028000020000000005B
:10130800F8B500BFF8BC08BC9E467047F8B500BFEA
:08131800F8BC08BC9E467047BA
:081320000CEFFF7F010000004B
:0813280015120008F501000890
:04133000CD010008E3
:10133400000000000000000000000000010203049F
:1013440006070809007A030A0000000001020304EA
:10135400010203040607080900000000140300202A
:101364007C030020E40300200000000000000000D3
:101374000000000000000000000000000000000069
:10138400000000000000000000000000FC12000843
:101394000000000000000000000000000000000049
:1013A4000000000000000000000000000000000039
:1013B4000000000000000000000000000000000029
:1013C4000000000000000000000000000000000019
:1013D4000000000000000000000000000000000009
:1013E40000000000000000000000000000000000F9
:1013F40000000000000000000000000000000000E9
:1014040001000000000000000E33CDAB34126DE685
:10141400ECDE05000B0000000000000000000000EE
:1014240000000000000000000000000000000000B8
:1014340000000000000000000000000000000000A8
:101444000000000000000000000000000000000098
:101454000000000000000000000000000000000088
:041784002800002019
:04178800000000005D
:0400000508000FE1FF
:00000001FF
